{
  "_format": "hh-sol-artifact-1",
  "contractName": "BallotTracker",
  "sourceName": "contracts/BallotTracker.sol",
  "abi": [
    {
      "anonymous": false,
      "inputs": [
        {
          "indexed": true,
          "internalType": "uint256",
          "name": "index",
          "type": "uint256"
        },
        {
          "indexed": false,
          "internalType": "string",
          "name": "electionId",
          "type": "string"
        },
        {
          "indexed": false,
          "internalType": "string",
          "name": "trackingCode",
          "type": "string"
        },
        {
          "indexed": false,
          "internalType": "string",
          "name": "ballotHash",
          "type": "string"
        },
        {
          "indexed": false,
          "internalType": "uint256",
          "name": "timestamp",
          "type": "uint256"
        }
      ],
      "name": "BallotRecorded",
      "type": "event"
    },
    {
      "inputs": [
        {
          "internalType": "uint256",
          "name": "",
          "type": "uint256"
        }
      ],
      "name": "ballotRecords",
      "outputs": [
        {
          "internalType": "string",
          "name": "electionId",
          "type": "string"
        },
        {
          "internalType": "string",
          "name": "trackingCode",
          "type": "string"
        },
        {
          "internalType": "string",
          "name": "ballotHash",
          "type": "string"
        },
        {
          "internalType": "uint256",
          "name": "timestamp",
          "type": "uint256"
        }
      ],
      "stateMutability": "view",
      "type": "function"
    },
    {
      "inputs": [
        {
          "internalType": "uint256",
          "name": "index",
          "type": "uint256"
        }
      ],
      "name": "getBallotRecord",
      "outputs": [
        {
          "internalType": "string",
          "name": "",
          "type": "string"
        },
        {
          "internalType": "string",
          "name": "",
          "type": "string"
        },
        {
          "internalType": "string",
          "name": "",
          "type": "string"
        },
        {
          "internalType": "uint256",
          "name": "",
          "type": "uint256"
        }
      ],
      "stateMutability": "view",
      "type": "function"
    },
    {
      "inputs": [],
      "name": "getRecordCount",
      "outputs": [
        {
          "internalType": "uint256",
          "name": "",
          "type": "uint256"
        }
      ],
      "stateMutability": "view",
      "type": "function"
    },
    {
      "inputs": [
        {
          "internalType": "string",
          "name": "_electionId",
          "type": "string"
        },
        {
          "internalType": "string",
          "name": "_trackingCode",
          "type": "string"
        },
        {
          "internalType": "string",
          "name": "_ballotHash",
          "type": "string"
        }
      ],
      "name": "recordBallot",
      "outputs": [
        {
          "internalType": "uint256",
          "name": "",
          "type": "uint256"
        }
      ],
      "stateMutability": "nonpayable",
      "type": "function"
    },
    {
      "inputs": [
        {
          "internalType": "string",
          "name": "_electionId",
          "type": "string"
        },
        {
          "internalType": "string",
          "name": "_trackingCode",
          "type": "string"
        },
        {
          "internalType": "string",
          "name": "_ballotHash",
          "type": "string"
        }
      ],
      "name": "verifyBallot",
      "outputs": [
        {
          "internalType": "bool",
          "name": "",
          "type": "bool"
        },
        {
          "internalType": "uint256",
          "name": "",
          "type": "uint256"
        }
      ],
      "stateMutability": "view",
      "type": "function"
    }
  ],
  "bytecode": "0x608060405234801561001057600080fd5b50610fb9806100206000396000f3fe608060405234801561001057600080fd5b50600436106100575760003560e01c8063135246921461005c5780636d92d0e81461008f578063a8e2952d146100c2578063c62e7a6a146100f2578063ca267f2814610123575b600080fd5b61007660048036038101906100719190610a8a565b610141565b6040516100869493929190610b5f565b60405180910390f35b6100a960048036038101906100a49190610a8a565b61035c565b6040516100b99493929190610b5f565b60405180910390f35b6100dc60048036038101906100d79190610cee565b610534565b6040516100e99190610d95565b60405180910390f35b61010c60048036038101906101079190610cee565b610649565b60405161011a929190610dcb565b60405180910390f35b61012b610991565b6040516101389190610d95565b60405180910390f35b60608060606000806000868154811061015d5761015c610df4565b5b906000526020600020906004020160405180608001604052908160008201805461018690610e52565b80601f01602080910402602001604051908101604052809291908181526020018280546101b290610e52565b80156101ff5780601f106101d4576101008083540402835291602001916101ff565b820191906000526020600020905b8154815290600101906020018083116101e257829003601f168201915b5050505050815260200160018201805461021890610e52565b80601f016020809104026020016040519081016040528092919081815260200182805461024490610e52565b80156102915780601f1061026657610100808354040283529160200191610291565b820191906000526020600020905b81548152906001019060200180831161027457829003601f168201915b505050505081526020016002820180546102aa90610e52565b80601f01602080910402602001604051908101604052809291908181526020018280546102d690610e52565b80156103235780601f106102f857610100808354040283529160200191610323565b820191906000526020600020905b81548152906001019060200180831161030657829003601f168201915b50505050508152602001600382015481525050905080600001518160200151826040015183606001519450945094509450509193509193565b6000818154811061036c57600080fd5b906000526020600020906004020160009150905080600001805461038f90610e52565b80601f01602080910402602001604051908101604052809291908181526020018280546103bb90610e52565b80156104085780601f106103dd57610100808354040283529160200191610408565b820191906000526020600020905b8154815290600101906020018083116103eb57829003601f168201915b50505050509080600101805461041d90610e52565b80601f016020809104026020016040519081016040528092919081815260200182805461044990610e52565b80156104965780601f1061046b57610100808354040283529160200191610496565b820191906000526020600020905b81548152906001019060200180831161047957829003601f168201915b5050505050908060020180546104ab90610e52565b80601f01602080910402602001604051908101604052809291908181526020018280546104d790610e52565b80156105245780601f106104f957610100808354040283529160200191610524565b820191906000526020600020905b81548152906001019060200180831161050757829003601f168201915b5050505050908060030154905084565b6000804290506000604051806080016040528087815260200186815260200185815260200183815250908060018154018082558091505060019003906000526020600020906004020160009091909190915060008201518160000190805190602001906105a292919061099d565b5060208201518160010190805190602001906105bf92919061099d565b5060408201518160020190805190602001906105dc92919061099d565b50606082015181600301555050600060016000805490506105fd9190610eb3565b9050807f9400e1dd297dc76bf5d0fe20f2dd550a6232215a875334863ea6d06fe02560f3878787866040516106359493929190610b5f565b60405180910390a280925050509392505050565b60008060005b60008054905081101561098057600080828154811061067157610670610df4565b5b906000526020600020906004020160405180608001604052908160008201805461069a90610e52565b80601f01602080910402602001604051908101604052809291908181526020018280546106c690610e52565b80156107135780601f106106e857610100808354040283529160200191610713565b820191906000526020600020905b8154815290600101906020018083116106f657829003601f168201915b5050505050815260200160018201805461072c90610e52565b80601f016020809104026020016040519081016040528092919081815260200182805461075890610e52565b80156107a55780601f1061077a576101008083540402835291602001916107a5565b820191906000526020600020905b81548152906001019060200180831161078857829003601f168201915b505050505081526020016002820180546107be90610e52565b80601f01602080910402602001604051908101604052809291908181526020018280546107ea90610e52565b80156108375780601f1061080c57610100808354040283529160200191610837565b820191906000526020600020905b81548152906001019060200180831161081a57829003601f168201915b5050505050815260200160038201548152505090508660405160200161085d9190610f23565b6040516020818303038152906040528051906020012081600001516040516020016108889190610f23565b604051602081830303815290604052805190602001201480156108fa5750856040516020016108b79190610f23565b6040516020818303038152906040528051906020012081602001516040516020016108e29190610f23565b60405160208183030381529060405280519060200120145b80156109555750846040516020016109129190610f23565b60405160208183030381529060405280519060200120816040015160405160200161093d9190610f23565b60405160208183030381529060405280519060200120145b1561096c5760018160600151935093505050610989565b50808061097890610f3a565b91505061064f565b50600080915091505b935093915050565b60008080549050905090565b8280546109a990610e52565b90600052602060002090601f0160209004810192826109cb5760008555610a12565b82601f106109e457805160ff1916838001178555610a12565b82800160010185558215610a12579182015b82811115610a115782518255916020019190600101906109f6565b5b509050610a1f9190610a23565b5090565b5b80821115610a3c576000816000905550600101610a24565b5090565b6000604051905090565b600080fd5b600080fd5b6000819050919050565b610a6781610a54565b8114610a7257600080fd5b50565b600081359050610a8481610a5e565b92915050565b600060208284031215610aa057610a9f610a4a565b5b6000610aae84828501610a75565b91505092915050565b600081519050919050565b600082825260208201905092915050565b60005b83811015610af1578082015181840152602081019050610ad6565b83811115610b00576000848401525b50505050565b6000601f19601f8301169050919050565b6000610b2282610ab7565b610b2c8185610ac2565b9350610b3c818560208601610ad3565b610b4581610b06565b840191505092915050565b610b5981610a54565b82525050565b60006080820190508181036000830152610b798187610b17565b90508181036020830152610b8d8186610b17565b90508181036040830152610ba18185610b17565b9050610bb06060830184610b50565b95945050505050565b600080fd5b600080fd5b7f4e487b7100000000000000000000000000000000000000000000000000000000600052604160045260246000fd5b610bfb82610b06565b810181811067ffffffffffffffff82111715610c1a57610c19610bc3565b5b80604052505050565b6000610c2d610a40565b9050610c398282610bf2565b919050565b600067ffffffffffffffff821115610c5957610c58610bc3565b5b610c6282610b06565b9050602081019050919050565b82818337600083830152505050565b6000610c91610c8c84610c3e565b610c23565b905082815260208101848484011115610cad57610cac610bbe565b5b610cb8848285610c6f565b509392505050565b600082601f830112610cd557610cd4610bb9565b5b8135610ce5848260208601610c7e565b91505092915050565b600080600060608486031215610d0757610d06610a4a565b5b600084013567ffffffffffffffff811115610d2557610d24610a4f565b5b610d3186828701610cc0565b935050602084013567ffffffffffffffff811115610d5257610d51610a4f565b5b610d5e86828701610cc0565b925050604084013567ffffffffffffffff811115610d7f57610d7e610a4f565b5b610d8b86828701610cc0565b9150509250925092565b6000602082019050610daa6000830184610b50565b92915050565b60008115159050919050565b610dc581610db0565b82525050565b6000604082019050610de06000830185610dbc565b610ded6020830184610b50565b9392505050565b7f4e487b7100000000000000000000000000000000000000000000000000000000600052603260045260246000fd5b7f4e487b7100000000000000000000000000000000000000000000000000000000600052602260045260246000fd5b60006002820490506001821680610e6a57607f821691505b60208210811415610e7e57610e7d610e23565b5b50919050565b7f4e487b7100000000000000000000000000000000000000000000000000000000600052601160045260246000fd5b6000610ebe82610a54565b9150610ec983610a54565b925082821015610edc57610edb610e84565b5b828203905092915050565b600081905092915050565b6000610efd82610ab7565b610f078185610ee7565b9350610f17818560208601610ad3565b80840191505092915050565b6000610f2f8284610ef2565b915081905092915050565b6000610f4582610a54565b91507fffffffffffffffffffffffffffffffffffffffffffffffffffffffffffffffff821415610f7857610f77610e84565b5b60018201905091905056fea26469706673582212205fee224b6f66745fe0b4fe0b741019cd0ba5a6a916039ef753d8a0ee803e0a8264736f6c63430008090033",
  "linkReferences": {},
  "deployedLinkReferences": {}
}